:10000000001000206D3B0000993B0000993B000070
:10001000993B0000993B0000993B0000993B000090
:10002000993B0000993B0000993B0000993B000080
:10003000993B0000993B0000993B0000993B000070
:10004000993B0000D50C0000993B0000993B000053
:10005000750C0000993B0000DD0C0000993B00008E
:10006000993B0000993B0000993B0000993B000040
:10007000812E0000993B0000993B0000993B000055
:10008000993B000010B5064C2378002B07D1054B97
:10009000002B02D0044800E000BF0123237010BDF4
:1000A000D0000020000000005C5B000008B5084B99
:1000B000002B03D00748084900E000BF0748036849
:1000C000002B03D0064B002B00D0984708BDC0463C
:1000D000000000005C5B0000D4000020CC00002089
:1000E00000000000164B002B00D1144B9D4640220F
:1000F00092029A1A924600218B460F461348144AE0
:10010000121A04F0E2FA0F4B002B00D098470E4B66
:10011000002B00D098470020002104000D000D485E
:10012000002802D00C4800E000BF04F09FFA200035
:10013000290000F059FC04F083FAC04600000800D2
:10014000001000200000000000000000D00000208F
:10015000940A00200000000000000000F0B58DB0FF
:1001600007911299059009920893002908D04842F6
:10017000169903F0D5FD3C231B1A041C039302E0DF
:100180003C22129C03926E4D0599059B039A281CF4
:1001900008390F3301F066FF059B1699013B139850
:1001A000049303F0BDFD039906900A1A0B19281C4D
:1001B000049901F093FF1498169903F0B1FD039B85
:1001C0004242041C02921F1A051C0126069A9542FF
:1001D0000EDC01235E40059B7200023B9B1A0499D2
:1001E0003A1C574801F03EFF02992D197F18EDE7A0
:1001F000129B002B0FDB1699159803F091FD1699B1
:10020000039B414342421F1A041C02910492043F83
:100210000D1C061C33E01699129803F081FD03991A
:10022000071C0E190125029BBB42E4DB01235D4044
:10023000059B6A00023B9B1A4148321C049901F05D
:1002400011FF029A3619121B0292ECE7632D11DCA2
:100250003C492A1C0BA804F041FA0BA804F068FAE8
:1002600000230193059B021C009735480BA9143B02
:1002700002F0F5F80299049A36196D18BF18069B1A
:100280009E42E3DD1299002902DB079C103C2DE021
:10029000159A1699504203F043FD1699051C1298C1
:1002A00003F03EFD169E029B6E4303991B1B4F1BE2
:1002B00004900293AE1B043F049B9D42E5DB321C7D
:1002C00020490BA804F00AFA0BA804F031FA002325
:1002D0000193059B021C009719480BA9143B02F0DF
:1002E000BEF8029A2D1BB6183F19E5E7201C0899A5
:1002F000002801DA4018FAE703F068FD099A505C1B
:10030000129943B28B4201DAC8B203E0139A9342C6
:1003100000DDD0B2169940B203F002FD059B079AAA
:10032000991A039A43B210310919D31A044801F0FB
:10033000D5FE079B01349C42D8D10DB0F0BDC0461C
:10034000F00000208D4F0000F0B500258FB0041C98
:100350000B9109920693AB4205D05842179903F0CE
:10036000DFFC051C241A7C4E099B221C1E3316211F
:10037000301C01F077FE1799149803F0D1FC631933
:10038000221A0A901D21301C01F0A8FE1598179919
:1003900003F0C6FC42420792231A01220390059300
:1003A00008900492089A0A9B9A4224DC049F012335
:1003B00001373B400493049A674E9B00D31A1C33C9
:1003C000301C1D21059A01F04DFEBF003D1C099B0C
:1003D0009D4207DA291C1E31301C059A01F0F3FDFD
:1003E000ED19F4E7089A039BD2180892079B059A27
:1003F000D2180592D6E7069A002A0EDB16981799AE
:1004000003F08EFC179B42424343271A0390049348
:100410000792043F1E1C051C31E00698179903F053
:100420007FFC039B0122E318089005930492079B2D
:10043000089A9342E2DB049F012301373B40049377
:10044000049A454E9B00D31A1C33301C1D21059A7B
:1004500001F008FEBF003D1C099B9D4207DA291CE4
:100460001E31301C059A01F0AEFDED19F4E7079A34
:10047000039BD21A0792059AD2180592D7E70A9AD7
:10048000954217DC321C35490DA804F027F90DA858
:1004900004F04EF90023021C009701932E4801231B
:1004A0000DA901F0DCFF039B049AED18079BB61819
:1004B000FF18E4E7069B002B01DB002543E0169ABA
:1004C0001799504203F02CFC1799051C069803F06D
:1004D00027FC179F049B6F43039A661B9B1A079088
:1004E0000493EF1B043E079B9D42E6DB3A1C1B492D
:1004F0000DA804F0F3F80DA804F01AF90023021C6B
:1005000000960193144801230DA901F0A8FF039B55
:10051000049AED1ABF18F618E5E70B9A505D069A93
:1005200043B2934213DB149A934210DC179940B202
:1005300003F0F6FB291C42B21E31A21A0648231C06
:1005400001F0CCFD0135099B9D42E6DB01E0D0B214
:10055000ECE70FB0F0BDC046F00000208D4F00006A
:1005600010B501F0CDFF002800D0FEE701F008FC37
:10057000002800D0FEE7074C201C01F0CBFC00282F
:1005800000D0FEE7044B0122A360044B60601A60B8
:1005900010BDC046F0000020FFFFFF00EC0000206F
:1005A00010B5044C2368002B03D001F079FC002324
:1005B000236010BDEC00002010B5044C2368012B13
:1005C00003D001F069FC0123236010BDEC00002082
:1005D000014B18687047C046EC000020F0B58DB0A4
:1005E0000793E14B041C1B680691151C002B00D1DE
:1005F000B7E1DE4E301C01F0C4FC002C00D09BE0C3
:100600000A235B42009328230A2701930522012332
:1006100002920397049314202B1C0699079AFFF764
:100620009DFD1423642203930223019202970493F5
:1006300042202B1C0699129A0094FFF78FFD0C2381
:10064000019301220523029303972B1C04926C2033
:10065000139A06990094FFF781FD0698291C01382A
:1006600003F0B4FB079B0F1C5A5608A8C04904F0BE
:1006700035F808A804F05CF84125021C08A90823F5
:1006800000950194301C01F0EAFE129BB949DA573B
:1006900008A804F023F808A804F04AF808A9021CE6
:1006A000362300950194301C01F0D9FE139BB2490A
:1006B000DA5708A804F012F808A804F039F808A9D5
:1006C000021C602300950194301C01F0C8FE4E22EC
:1006D0007F23211C301C01F0C5FCA84908A804F0A8
:1006E0001FF808A804F024F85423021C009308A95A
:1006F00008230194301C01F0B2FEA14908A804F0BF
:100700000FF808A804F014F85C23021C009308A951
:1007100008230194301C01F0A2FE9A4908A803F0B6
:10072000FFFF08A804F004F86423021C009301945E
:10073000301C08A940233DE0012C16D1282300934A
:1007400005270A232A1C02933C205B420799019744
:100750000394FFF7F9FD0698291C013803F036FBD6
:10076000079B08A85A56884940E0022C25D16423EB
:1007700000930A23019314232A1C02933C20002394
:1007800012990394FFF7E0FD0698291C013803F045
:100790001DFB129B08A85A567C4903F09FFF08A82E
:1007A00003F0C6FF552300930023021C0193301C65
:1007B00008A9052301F053FE67E0032C24D10C2384
:1007C00000930A230193052701232A1C03933C204D
:1007D000002313990297FFF7B7FD0698291C0138EB
:1007E00003F0F4FA139B08A85A56694903F076FF00
:1007F00008A803F09DFF552300930023021C0193DA
:10080000301C08A93B1CD5E7042C17D128230093E2
:1008100005230A2401930123039338200799634297
:1008200002942A1CFFF790FD642300931423029383
:100830000223019403937E20129915E0052C18D110
:100840000A27282301260093382007997B42019428
:10085000029703962A1CFFF777FD0C231399009348
:100860000194029703967E202A1C0023FFF76CFD5B
:1008700048E0062C07D100208023011C454ADB01FB
:1008800001F0E8F86BE0032C1DD81699159803F0D9
:1008900047FA1699051C159803F098FA169A0B1C3E
:1008A00000923D492A1C08A803F018FF08A803F08D
:1008B0003FFF772300930023021C01932B4808A9D4
:1008C000052301F0CCFD631E022B18D8069C274D92
:1008D0001E34211C41225023281C01F0FFFB069BE3
:1008E00044271B33211C41220097281C01F049FC9E
:1008F000069B00972133281C211C41222DE0043C3B
:10090000012C2CD8069C194D1E34211C3C22472357
:10091000281C01F0E3FB069F3F231B370093211C9B
:100920003C223B1C281C01F02CFC069E3F22213659
:100930000092211C3C22331C281C01F022FC442381
:100940000093211C47223B1C281C01F01AFC442266
:100950000092281C211C4722331C01F012FC01F0DC
:100960004BFA0DB0F0BDC046EC000020F0000020B6
:10097000484F00004C4F0000504F0000544F000003
:10098000604F00006B4F0000714F00007C4F000073
:10099000894F00009F4F0000904F000008B5034BA7
:1009A0001868034B1B68984708BDC0461C0100200F
:1009B00028010020014B01221A7070470500002019
:1009C00007B5FFF7EDFD054B0121186800230093E3
:1009D000034A044B02F068F907BDC046780A0020BC
:1009E00010270000C1090000F0B5DBB00CAC8C4A48
:1009F0000794231C13CA13C313CA13C389480121C4
:100A000000F032FB02200127021C0821012300F024
:100A100061FD3B1C009702200821002200F016FD1A
:100A20000220021C3B1C092100F054FD3B1C0097D6
:100A300002200921002200F009FD7B4EC020022384
:100A40004000335004213360402333500A1C33608C
:100A50000320002300F03EFD744B1021D967744B36
:100A60002AAC0022D967734D1F2322706270A270D6
:100A7000227162710021092242A8E37003F025FE71
:100A8000391C6D4800F0F0FA281C211C00F04CF9CC
:100A90000A20FF3004236844092243A903700A7026
:100AA000281C42A900F05EF9644B10206B636B694F
:100AB0001F43C0235B006F61F050306000230025AE
:100AC00012AA42A99D54E554CD540133602BF6D1AE
:100AD00002F09EF85A4E301C02F044F8594F381C70
:100AE00002F040F8FFF73CFD0CA801F00BFF2A1CB8
:100AF0008221554802F024FFC021534802F096FAA3
:100B0000C0210122504802F0F9FA386801214F4A09
:100B10004F4B009502F0C8F830684E4A4E4B009596
:100B2000012102F0C1F84D4A012313704C4A2E1CDA
:100B3000137007934A4B1B78002B54D0494B00226B
:100B40003C481A7001224260191C0A78002A06D11A
:100B5000454B04201A6982431A6130BFF5E73549D5
:100B60006E4622364F6A09AA82210AAB364802F045
:100B7000B9FE321C0BABC021334802F075FAFA21E2
:100B80000A98890003F0CCF812AB5855FA2109985D
:100B9000890003F077F86055338842AA5355013530
:100BA0000026EB0F5F22AA4273415B421D402C4B93
:100BB0001E702E4B1A6801321A60079BAF22120179
:100BC000B34202D0BA427641F6B20023181CBA42B0
:100BD0005841C2B207921B4A0121106800931B4A78
:100BE0001B4B02F061F81D4B1A78002A13D000222B
:100BF0001A70FFF7E1FC1E4B42A918681B4B6022DC
:100C00001B68019103930423049300940296291C0A
:100C100012ABFFF7E3FC002000F0F0FB8AE7C046D0
:100C2000A05700000072020000E100E004600040F4
:100C3000006000400020004000A202007C1F000075
:100C4000780A0020740A002000A00040A0BB0D001C
:100C5000B509000010270000C109000004000020B1
:100C6000050000202001002000ED00E0240100200C
:100C700000000020034B9A691A62034B01221A708C
:100C80007047C04600200040200100200E4A10B5E9
:100C900093691362DA0505D50C4A012111700C4ADB
:100CA000062111609A050DD5FFF792FC012806D1A7
:100CB000074C07212068013003F088F82160034BBE
:100CC00001221A7010BDC046FC60004004000020E4
:100CD0000000002008B5FFF7D9FF08BD08B5FFF7F1
:100CE000D5FF08BD30B50D4B85B018600C4B03A87F
:100CF000141C196001F036FFFA20211C800002F05C
:100D0000C1FF039D0024021C0094281C0121054BF7
:100D100001F0CAFF201C05B030BDC04628010020EC
:100D20001C0100209D0900000A2343600A784B78CB
:100D300012061B0113438A7810B5CC781343FE22A8
:100D40002404D20322400C791343FE222402D20150
:100D5000224013434A79002A01D00822134303603A
:100D600010BD000070B58C780222031C4260062C76
:100D70003BD8201C02F07CFF040F162439393100C7
:100D8000586B2C4AFE2510402B4AED015668354021
:100D90000543506810E05D6B264A1540264A5068AE
:100DA000526813E0586B234AFE251040224AED0199
:100DB00096683540054390687F2210402A1C12E057
:100DC0005D6B1C4A15401C4A9068926852024000B4
:100DD000520E400E2A43000205E0174D586BED6895
:100DE0007F2290432A4002435A6348780A780005DC
:100DF0001207024308792404000222430243C87800
:100E0000000102438879002802D080204004024378
:100E1000C879002801D0042002434879002801D075
:100E200002200243097A002901D001210A43DA6035
:100E300070BDC0468080FFFFB081E00F0B4B0C4AB5
:100E400070B5D96BDA635A680A4A0B4C80180022D5
:100E50005D68161C8442564107208543281C304398
:100E60005860914200D0DA6370BDC04600000C406B
:100E7000711B0000FFDB0BFFFF23F400104BE0228F
:100E80005B69D2008021134089008B4216D007D8BD
:100E9000002B0FD08022520093420DD109480EE062
:100EA000C02189008B4203D0934205D1064806E059
:100EB000064804E0064802E0002000E005487047CC
:100EC00000800C40C0D8A700406F400140420F0096
:100ED000809FD500C0CF6A00034B5A6DD10702D462
:100EE0001A6D0242FCD1704700800C40104A08B5D0
:100EF000916A4300D9400B1C03210B40022B06D002
:100F00008B4207D0012B09D102F0A5FE0FE002F0C1
:100F1000A9FE0CE002F08EFE400808E0936A04305F
:100F20008000C3400020834201D002F097FE08BD3C
:100F300000800C40021C0006000F013800B50123A0
:100F400003281CD802F094FE0205090F0D4B9A6885
:100F500001E00C4B5A680F230BE00B4B9A420DD16A
:100F6000084B9A6EF7E7094B9A4207D1054B1A6F67
:100F70000323134001229A40131C00E00123181C94
:100F800000BDC04600800C4030040800400514003D
:100F9000031C0006000F013810B50C1C032859D89B
:100FA00002F066FE02132B42802212060023144236
:100FB00002D101335208FAE7274A1F209168C31A69
:100FC0000F2081430B43936044E02448FFF736FF32
:100FD000802212060023144202D101335208FAE79C
:100FE0001D4A1F205168C31A0F2081430B435360D1
:100FF00002F020FEFFF722FF2CE0194A934229D18C
:101000000420FFF769FF802212060023144202D158
:1010100001335208FAE7104A1F20916EC31A0F20BD
:1010200081430B43936615E00E4A934212D1402050
:10103000FFF752FF802212060023144202D101332F
:101040005208FAE7044A1F20116FC31A0320814394
:101050000B43136710BDC04600800C4000366E0184
:10106000300408004005140070B5051C0005000F91
:1010700001380E1C052823D802F0FAFD03120609D8
:101080000C0F00200F4C0DE000200F4C0AE0012057
:101090000E4C07E010200E4C04E000200D4C01E047
:1010A0000D4C0020ED03ED0E002801D0FFF714FFDA
:1010B00023680122AA409343AE401D1C354325609E
:1010C00070BDC04608800C4040800C4058800C40E9
:1010D00060800C4078800C4044800C400F23184006
:1010E000013800B50023032840D802F0C1FD0418E0
:1010F000290207233AE01E4BDA6AF0239B011340D2
:101100008022520193422ED08022920193422CD011
:1011100018495B185A4253410522D31A26E0144A53
:101120000321936A0B40022B20D08B4213D0012B5A
:1011300001D10B1C1AE0926A0923D10316D410E0E6
:101140000B4A0C23916A0B40082B0ED00C2B02D0BB
:10115000042B02D107E0062308E0926A0923D1029A
:1011600004D4012302E0032300E00223181C00BD85
:1011700000800C4000F8FFFF08B5F8239B031840DF
:1011800080231B0398422ED011D880239B029842C3
:1011900021D002D8002840D045E08023DB029842CD
:1011A0001ED0C023DB0298423DD1002024E0A023C2
:1011B0005B03984223D005D890235B03984232D139
:1011C000012019E0C0235B0398421FD0D0235B03AA
:1011D000984225D027E002F0E1FC144B9A6807E022
:1011E00002F028FD20E00020FFF780FE0F4B9A6EF2
:1011F0000F231340D84017E0FFF778FE14E00120DA
:10120000FFF774FE094B1A6F0323F2E70848FFF754
:1012100065FF072804D0082805D102F0BFFC03E0D1
:10122000FFF72CFE00E0002008BDC04600800C4007
:101230000400180010B5042821D802F019FD0C098B
:1012400011030600012002230CE01020202309E0F6
:101250004020802306E08020802340009B0001E0A6
:1012600004200823064C002906D02062002A04D05E
:10127000E26A1A42FCD000E0236200F0DDF810BD03
:1012800000800C4010B50F240440012C04D0002C29
:101290005ED0032C26D95BE0881E072858D802F0C0
:1012A000E7FC0F06090C57575704032000E0012004
:1012B000032407E00220041C04E00320012401E0D1
:1012C0000020042401210A1CFFF7B4FF2148FFF786
:1012D000B5FD214B5C6200F0AFF802F0ABFCFFF70C
:1012E000ADFD35E0481E082832D802F0C1FC0507E4
:1012F0000E31311531311D00002313E00121002092
:101300000A1CFFF797FF02230CE00120011C021CBE
:10131000FFF790FF012305E0104B042219680A43F0
:101320001A600323002201E0002301220A49022C53
:1013300006D18C6A0A48120420400343134306E096
:1013400012059B001343886A064A104003438B62D0
:1013500010BDC04600366E0100800C4040800C403D
:10136000FCFFFEFFF3FFEFFF2049214B70B5CC6F70
:10137000CB67204B01201B6810251D4004404026F0
:1013800018401E400543354304261E403543802641
:1013900076001E40184A35431562F025AD012B40FA
:1013A00080256D01AB4208D08025AD01AB4209D04C
:1013B00080252D01AB4210D109E0D36A1D06FCD572
:1013C000032508E0D36A9D05FCD5042503E0D36A14
:1013D0001D07FCD50225084B5D62002801D10223C0
:1013E0001362002C01D00023CB6770BD08800C4035
:1013F0000E5800002C01002000800C4008B50B4B5B
:101400000421DA6A0A4B1A600A4B1A690A431A6104
:1014100030BF002802D0FFF7A7FF05E0044B1B6890
:101420005A0501D402F006FC08BDC04600800C40FD
:101430002C01002000ED00E0024BDA6A024B1A603A
:101440007047C04600800C402C010020F7B508AC66
:10145000247801941B4C07290AD88D0067680F2651
:10146000AE40A840B743051C381C284360600BE021
:101470000D1C083DAD00A7680F26AE40A840B7433D
:10148000051C381C2843A0600F4F012538688D408B
:1014900084466646E84306408A4032433A600B4A37
:1014A00017680740BC461F1C8F4063463B431360D0
:1014B000074B25621A681040019A8A401043186051
:1014C000F7BDC046FC600040086100400C61004070
:1014D00010610040F0B5002A0CD0012524248D4075
:1014E0004443002B03D01B4EA419256102E01A4E81
:1014F000A41965602424444307290CD8154D0F26F0
:10150000641967688D00AE40B743161CAE403D1CA1
:10151000354365600DE00F4EA419104EA7688D1974
:10152000AD000F26AE40B743161CAE403D1C354300
:10153000A560002A0CD1012424228C404243002BB8
:1015400003D0044BD218146102E0034D52195460C9
:10155000F0BDC0460060004010600040F8FFFF3F53
:1015600070B5041C151C1E1C002A1BD002680E4BF3
:10157000134003600368320213430360002903D160
:101580000A48FFF7F9FD011C094BA800081A995DEC
:10159000694302F077FB23689A0702D5002800D13F
:1015A0000120206170BDC046FFFCFFFF10810200DA
:1015B000B8570000002343630C4B02220363036807
:1015C00070B593434A7801267240B24013430D1C14
:1015D0000360041CAA680B7B4968FFF7C1FF2368FE
:1015E0002A78B3431343236070BDC046CFFF010088
:1015F000894AF0B5904200D00AE1884B9E681F7876
:101600005C881979C020956AC00005420AD019711A
:101610005C80FD21A80500D5EAE0690500D4E8E07A
:10162000FE21E5E0082F00D9DFE0381C02F020FBA6
:10163000051B424F677697ABD300708819715C80A9
:101640003188C40604D50620090A0140F02004E0D0
:10165000FE242140850701D5012001430120187097
:1016600051625060C7E08020054200D07AE04027F8
:101670003D4201D101207FE017637788022566484B
:10168000AC46FD0606D519716146197031785C804B
:101690004162B0E065462F4273D05C801971072427
:1016A000C9001C7076183189012900D0A3E00821F7
:1016B0004160A0E08020054254D1402702203D42F5
:1016C0005AD075881763032705429BD159E05C8087
:1016D000748819713188E00605D50620090A014091
:1016E000F020014301E0FE2001400420044201D02B
:1016F0000124214318700120506051627BE080205A
:1017000005422FD1402704203D4235D0758817630C
:10171000054236D019715C8007216BE0C800301893
:101720000589A54213D8748801310420C9B220402C
:1017300002D00024032765E701252C4002D0588001
:10174000197138E0012900D85CE75C80F8E719716D
:101750004168601C095D5880516206214AE0802082
:10176000054205D01971FF215C801063597022E099
:101770004020054204D1062018705C8019713AE0BF
:10178000106305273EE7072018705C801971AC06CE
:1017900031D5C900761830895C88D569844203D276
:1017A0007168661C5E800D555988814208D30128F6
:1017B00001D10821516008211970022151601AE0FD
:1017C00004245460012816D00138814213D11249F3
:1017D000082048600FE01971802108204900187026
:1017E0005C800D4207D0116303E019715C80FB211E
:1017F00059700921197019780120092909D100218E
:10180000516301229A56824200D15970587800E003
:10181000FC2040B2F0BDC04600A0004030010020D6
:10182000174B10B5984201D0FC2026E09A68D007EB
:1018300001D520225A604A88900702D508890028DD
:10184000F2D0500702D50A8A002AEDD00D4A0020B6
:10185000012410711070547050809160C0225A6041
:101860009A6A910601D5064AD269074A04481A6362
:10187000FC22D2005A63FFF7BBFE40B210BDC04647
:1018800000A0004030010020CFFF0100002804D05C
:10189000012805D1034BD86803E0024B986800E0AB
:1018A0000020704700000840002803D0012803D121
:1018B000024B00E0024B19607047C0460C00084024
:1018C00008000840034B01211A688A43104318603E
:1018D0007047C04600000840034B002802D0012298
:1018E0001A6200E0186270470000084042780378EE
:1018F000002A01D0022213438278002A01D0042258
:101900001343014A136070470000084008B50020E7
:10191000FFF7D8FF0120FFF7D5FF08BD38B5051C3C
:10192000141C081E02D10748FFF726FC631E400066
:101930001818211C02F0A6F9034B8001403818400A
:10194000686138BD1081020000FF1F000A4B0B4A7E
:10195000C360002303604260094A83604361C3643B
:101960008264084A4365904200D1036583659042D2
:1019700001D10023C3657047AA0E000005100000C6
:10198000F91F000000C4004038B50D1C041CFFF70F
:10199000DDFF2B8A01221343AA7B2168501E82415E
:1019A00092020B4313432360AB7C21685A1E934180
:1019B0002A7D1B01501E824152070B4313432360B3
:1019C0002A7B80235B0113436360201C6968AA683B
:1019D000FFF7A4FF6B7B002B01D01023E3602B7873
:1019E000E36038BD03695A06FCD54163704703695B
:1019F0005A06FCD5C1637047044B1A780123002AAC
:101A000002D0034B03600023181C70477C010020A8
:101A100070010020F0B5051C0C4804780120002C52
:101A200013D00B4CAE1827880420BE420DDC67880B
:101A3000CE18BE4209DC0520002A06D0002B04D0B7
:101A4000A580E180228163810020F0BD7C0100201F
:101A500070010020F0B587B00093574B03921A78BD
:101A60000123002A00D1A3E0544A1568002D00D1BB
:101A70009EE0534A009E54891389641A5C430323F1
:101A8000241AA64200D993E04E4B5C7C002C00D077
:101A90008DE09B680294DB080493D388C918049BEB
:101AA00089B24B43EB1805910193009E002E7CD028
:101AB000434B009E1D892D1AB54200D9351C9F88C5
:101AC000009EC719761BBFB2072300961F4203D1A1
:101AD0001C4201D19D4232D8EE19231C3A1BD21868
:101AE00092B2B24249D20398D910415C0720184003
:101AF0000141081C0121084032490D7CD108002D0C
:101B000002D1002804D10EE0012D0CD100280AD109
:101B1000019841180720024001209040021C0878DB
:101B200002430A7009E00198411807200240012091
:101B30009040021C0878904308700133CEE7019E64
:101B40000398FF08F719E110EE084118321C381C01
:101B500002F0B2FDF300ED1AE318002D0DD00122C2
:101B6000039CBE19D810AA403178205C013AD2B249
:101B700091430240114331705B19029E059C124A49
:101B800030191F2441112040012484408900201C69
:101B9000029C8E58013430430294019E049C88506C
:101BA0003619019600201C1C7FE7331C00E00A2335
:101BB000181C07B0F0BDC0467C0100204001002089
:101BC00070010020440100207C0A0020F0B5021CB6
:101BD000504887B004780120002C00D198E04E4C8A
:101BE0002468002C00D193E04C48457C002D00D0A7
:101BF0008DE08568007CED080395012801D05842EE
:101C00004341581E8341DBB205935B42DBB2029332
:101C1000434B039EDB880025C91889B24E430491CB
:101C2000A61901950D9D002D6FD03D4B0D9D1C8972
:101C3000A41AAC4200D92C1C0D9D2D1B0D959D881E
:101C40005519ADB2072C21D80598641900280ED07B
:101C5000A54245D207222A40EB080121F318914002
:101C60000A1C197801350A431A70ADB2F0E7A54293
:101C700036D207212940EB080122F3188A40111CB3
:101C80001A7801358A431A70ADB2F0E707232B406A
:101C9000ED087519002B0CD001229A402878013AE2
:101CA0000299D2B2914302400A43083B2A70E418D9
:101CB0000135E70807D0281C02993A1C02F005FDFF
:101CC000FB00E41AED19002C0AD00123A3401C1CD0
:101CD000013C2B780299E4B2A3430C401C432C70C6
:101CE000019D04980F4B29184A111F2092000140B2
:101CF0000120D5588840011C2943019DD150013550
:101D00000195039D002276198CE7281C00E00A202B
:101D100007B0F0BD7C0100204001002044010020FC
:101D2000700100207C0A002008B5024800214369A8
:101D3000984708BD4401002008B5024801214369C5
:101D4000984708BD4401002070B50A4C051C0A489C
:101D5000231CC26841688669B04722680B20002AAC
:101D600006D02A600548FF21102202F0AEFC0020B8
:101D700070BDC04640010020440100207C0A0020C4
:101D8000F7B5194E0020337883422BD100F0B8FB11
:101D9000002827D1154D291C00F0C8FB002821D1AF
:101DA000134F381CFFF7D0FF041E1BD13B680B20DC
:101DB000002B17D0EA68696890B28FB2021C7A4390
:101DC0000C4B211C588058811F809C80DC801F8117
:101DD00001233370201C01920094221C231CFFF766
:101DE000F5FE201CFEBDC0467C0100204401002001
:101DF0004001002070010020F0B5244B85B09B68A5
:101E00000024DB080293224B01261D68271C1F4873
:101E1000E319C2680393934220D201222A4001D0E1
:101E2000013412E0002C0FD0029B1A497B43096851
:101E3000C918436800970194046AA047002823D179
:101E4000039F041C013700E00137E3196D08DA062F
:101E5000DDD10F4BB200D5580136D8E7002C06D1A2
:101E60000B480021102202F030FC00200CE0029B05
:101E7000084A7B4311680022C918436800970194FF
:101E8000046AA0470028EBD005B0F0BD4401002053
:101E90007C0A00204001002008B5FFF74DFF08BD77
:101EA00008B5FFF741FF08BDF7B5051C0C1C00285D
:101EB0002ED000292CD00F688A680420974228DA97
:101EC000E36849680193994223DA2E68B088844612
:101ED000032067451DDBF38899421ADB338993425F
:101EE00017DD7689019B9E4213DD89B2B8B2CB180B
:101EF00082180132013392B29BB2FFF78BFD216849
:101F00006268A368E468E960AC612A616B6100E023
:101F10000520FEBD30B5051C87B0052400281CD067
:101F2000002343600E4B836001A8FFF765FD041E8C
:101F300013D1019B02901A882B605B880390013AB1
:101F4000013B281C02A904920593FFF7ADFF041E74
:101F500003D1281C034900F0C3FA201C07B030BD90
:101F6000FFFFFF00BC57000008B5031C0520002B35
:101F700006D01B6800201A88011C5B88FFF74AFD09
:101F800008BD37B5041C0521002813D04568FFF7AC
:101F9000EBFF011E0ED120682A0C2B0AEDB2009532
:101FA00044890089D2B26043DBB20190081CFFF77C
:101FB0000DFE011C081C3EBD10B5040C0C70010A7E
:101FC0001170187010BDF7B5051C0F1C161C0524E8
:101FD000002812D00C3000F099F9012400280CD010
:101FE000AD68B8B22A0C2B0AEDB20194B1B2D2B2EC
:101FF000DBB20095FFF7EAFD041C201CFEBDF7B51F
:102000000F1C161C1D1C0524002811D00C3000F0DC
:102010007DF9012400280BD02A0C2B0AEDB2019483
:10202000B8B2B1B2D2B2DBB20095FFF7CFFD041C5B
:10203000201CFEBD031C10B5DC680120A14200DBA2
:1020400000205C69C0B2A14201DD02210843996908
:102050008A4201DD042108431B699A4201DA082300
:10206000184310BDF0B5171C85B01C1C002831D0DA
:102070000269012397422EDB826997422BDCA14241
:1020800002DD0B1C211C1C1C46690123B14222DC11
:10209000C26894421FDB0D1E954200DA151C69468A
:1020A0006A466B4680680D310E320F33FFF784FFAE
:1020B000B9B26F46FF7B6B465A7BA8B29B7B0097F9
:1020C000B44200DD341C641B01340194FFF77EFD33
:1020D000031C00E00523181C05B0F0BDF0B5051C7D
:1020E00087B0002849D0C0680124814246DB686976
:1020F000814243DC9A4202DD101C1A1C031CA869B1
:10210000012482423ADC2E69B34237DBB24200DA64
:10211000321C834200DD031C9B1A0133039388B2F7
:102120009BB291B20122FFF775FC041E26D16F46C7
:102130006E46153716366B46A868391C321C1733A5
:10214000FFF73AFF6846C17D3A78337800910399EA
:10215000201C0191211CFFF739FD041E0ED16B6973
:10216000A889298AC218AB690132CB18013392B20F
:102170009BB2FFF74FFC041C00E00524201C07B0B5
:10218000F0BDF0B587B003900D1C141C01930C9F9B
:10219000002869D0994203D13B1CFFF79FFFB3E0B1
:1021A0000398BC4203D1019BFFF75CFFACE0FFF753
:1021B00041FF019904903A1C0398FFF73BFF00266A
:1021C00005900296059B04990B43DBB2002B4DD082
:1021D000059A0B1C1340DBB20120002B00D093E0CA
:1021E000131C002900D00B1C034209D0039B019A49
:1021F000DB68029302993B1B481B5843511B09E0C3
:1022000099070BD5039A3B1B5269501B5843019BFE
:102210000292591B01F084FD261811E0590702D5DE
:10222000039A966903E01A070AD5039B1E69019970
:10223000301B4B1B5843391B01F072FD28180290CC
:10224000049A03980299002A06D0321CFFF7F2FE86
:10225000341C0490029DB5E7321CFFF7EBFE029B95
:102260000590371C0193ADE705204DE03B1BA742CD
:1022700000DCE31B01996A1AA94200DD4A1B934264
:1022800002DC0022049207E0019B01971F1C2B1C1B
:10229000251C1C1C012304930199A94205DA231C67
:1022A0003C1C1F1C2B1C01930D1C019AE31B521B91
:1022B00002920593A74201DD391B0591029AD60FC0
:1022C000B61876107642A74201DB012714E00127F9
:1022D0007F4211E0049B0398002B11D0211C2A1C83
:1022E000FFF771FE00280FD105997618002E02DD48
:1022F000029AE419B61A0135019B9D42EADD02E01B
:10230000291C221CECE7002007B0F0BD10B5031E0D
:1023100010D01C680020A1420CDB9C68A14209DCA3
:1023200059688A4206DBDB68D00FD91793424841CF
:10233000C0B2FFE710BDF0B587B004930CAB1B78BB
:10234000041C0392059300D186E00D1C203DEBB2E6
:1023500002205E2B00D980E0231C28331B78ADB20D
:10236000834209D13A2906D00B25202904D00D1C1F
:10237000303DADB200E00A25238C0220AB426CDD7B
:10238000E069002702900197A31DDB7F019883423B
:102390005FD9E31CDB7F012B05D0022B08D102980B
:1023A0006B001B5A07E0029A525D0092002619E06A
:1023B000029AAB00D35A0093F8E7009BDB0716D5CF
:1023C0000398049B811901981A18201CFFF7FBFD44
:1023D000012842D843424341FF1800980136400883
:1023E0000090B6B2631DDB7FB342E6D811E0059AD8
:1023F000002AF2D0039B04989919019BC218201C53
:102400006368FFF7FCFDE3E7059A002A09D101366E
:10241000B6B2631DDA7F0333DB7FD3189E42F3DB52
:102420000EE0039B04989919019BC218201C636855
:10243000FFF7E5FD012810D843424341FF18E6E7C6
:10244000231DDB7FED18019BADB201339BB20193DD
:102450009AE77842784100E0052007B0F0BDF0B57A
:1024600087B003930CAB041C01CB1B780593002CA5
:1024700033D0002931D0231C28331B780220002BB5
:102480002CD08A18039E0D1C0492002704988542C4
:1024900020D029780A2909D1A31DDB7F0C99039E3E
:1024A000CA18E31DDB7FD3180C9311E0059B201C99
:1024B0000093321C0C9BFFF73EFF01280ED84342CD
:1024C0004341FF18631DDA7F0333DB7FD318F6180F
:1024D0000135DBE77842784100E0052007B0F0BD28
:1024E00008B500280AD01C301022002902D102F0C1
:1024F000ECF803E002F0E0F8002000E0052008BD61
:10250000084B10B51C78002C01D0002009E00122F6
:102510001A70054BE358002BF7D098470434002875
:10252000F7D010BDB0010020080000200A4A08B50D
:1025300012780B1C002A0AD000280ADC2C225043F7
:1025400006490918181C02F0B7F8002002E00448F8
:1025500000E0044808BDC046B0010020840100200E
:10256000050011800200118008B50B4B011C1B787F
:10257000002B0DD0094A1368002B0BDC581C10608F
:102580002C2253430648C01802F096F8002002E0BF
:10259000044800E0044808BDB0010020800100208C
:1025A00084010020050011800100118070B5802990
:1025B00010D10949094D0C68802612013601A21874
:1025C000AD190020AA4202D91860054803E01C603A
:1025D0000A6000E0034870BD10000020B101002037
:1025E0000100118002001180004870470400118032
:1025F00008B500F031F900F0EDF8002008BD70B525
:102600000E1C1D1C002420013018AC4205D00021F6
:10261000102202F05AF80134F5E7002070BDF7B53A
:102620000F1C04200B2100F043F9062000F019F9DB
:10263000089E6D460136B6B20635012233021343B9
:10264000281C02212B8000F0E7F80024099B2001C0
:1026500038189C4215D0102100F0DEF8099B013B90
:102660009C4202D101235B4204E0731C1B191B0234
:10267000FF221343281C02212B80013400F0CCF8E8
:10268000E4E7022000F0EDF80B21042000F01EF931
:102690000020FEBD08B504200A2100F025F9002025
:1026A00008BD08B50821002000F002F900200A2129
:1026B00000F0FEF808BD10B50C1E02D0FFF7F1FFC8
:1026C00007E0081C0A2100F001F9201C082100F095
:1026D000FDF8002010BD000030B58DB000F0BCF852
:1026E00000F078F800F0CCF80022131C0F21022033
:1026F00000F0D0F80022131C0721032000F0CAF8D4
:102700000022131C0B21042000F0C4F80020082133
:10271000021C031C00F0BEF800200A21021C031C4E
:1027200000F0B8F80020011C021C031C00F0B2F8F5
:102730000022131C0A21042000F0ACF81D480021DF
:10274000402200F093F8041E30D11B4A01A80192E8
:102750000122027480224260C2608260174A44747F
:102760004261174A8261174AC261174A0262174AD8
:102770004262174A8262FFF7F7FE041E16D1FFF786
:1027800090FF0B21042000F093F8062000F069F878
:102790006846022102300425058000F03DF8022041
:1027A00000F05FF8281C0B2100F090F8201C0DB001
:1027B00030BDC04695260000EC5A0000B726000048
:1027C000AD250000E92500001F260000FF250000C0
:1027D000F125000030B50B4A87B06B4623CA23C3EE
:1027E00023CA23C3084D09480121FEF73DFC084BCD
:1027F000281C69460293FFF7C7F8064B00206B655B
:1028000007B030BD045B000000C40040003202008D
:10281000E06735000A03000038B5041C0D1C002DCC
:1028200011D0012D01D0E20706D521780948FFF724
:10283000D9F8013D0134F2E721880648FFF7D7F8BF
:10284000023D0234EBE7034B1B699A06FBD50020DF
:1028500038BDC04600C4004008B501F093F8002020
:1028600008BD08B501F06EF9002008BD08B5FEF7F7
:1028700039FA002800D0014808BDC0460200138084
:1028800008B503480121FEF7EFFB002008BDC04654
:102890000072020010B5141E05D1C0B20422FEF76A
:1028A00019FE201C00E0014810BDC0460100138045
:1028B00001238B40191CC0B224235843024BC0187B
:1028C000016100207047C0460060004001238B403A
:1028D000191CC0B224235843024BC0184160002089
:1028E0007047C0461060004001238B40191CC0B2E5
:1028F00024235843024BC018816100207047C04612
:10290000006000407FB5041C01211E48FEF7ACFBAF
:102910001D4B2168994233D11C480121FEF7A4FBCD
:10292000207961790A220123FEF7D4FD0A22A079D9
:10293000E1790123FEF7CEFD257909226079012393
:1029400024211E1C69438640301C114E013A89190E
:10295000086060791E1C86404E60002AEED1227A03
:10296000032112020A43206869460B704B70E3682A
:10297000826301932269237D02920B73FEF71AFE94
:102980007FBDC0461081020000A0004000B20200DE
:102990001060004038B5051CFEF742FF054C40B200
:1029A000012806D1013C002C03D0281CFEF720FE94
:1029B000F5E738BDE193040072B6044B1A68511C68
:1029C00001D001321A6018687047C0463C010020EF
:1029D000054B00201A68824204D0501E186000285F
:1029E00000D162B67047C0463C010020F7B52549CA
:1029F0000190081C14300B7F002294464A779342C2
:102A00003AD00A684B68019C6546634501D1A242F1
:102A100004D9121BAB410A604B602DE0CE7F002E23
:102A200001D10E7723E08E68CF6892197B41121B8B
:102A3000AB410A604B60031F1B680268002B06DD78
:102A40009B180360F32B12D90122002306E0D31A4E
:102A50000360F32B0BD901225242D3170E684F6843
:102A600092197B410A604B600368F43B03608F69F5
:102A7000002F01D001234B77034A2831283091429F
:102A8000B9D1F7BDB8090020580A002010B50024BC
:102A900028236343064AD3185A7F002A03D0196AB1
:102AA000201C9B6998470134042CF1D110BDC0460D
:102AB000B8090020064B82B0596809025A68019291
:102AC000019A1202521A120A8242F7D302B07047D8
:102AD00000000840F8B51D4B01241E1C6442A036BE
:102AE000221C197F002908D059681D688A4202D823
:102AF00003D1AC4201D92C1C0A1C2833B342F0D1BB
:102B0000134E00233370631C01D1531C1DD0002AC7
:102B100002D1104B9C4200D90E4C0F4B1A780F4B30
:102B2000002A03D10202120A1A6000E018600C4D5C
:102B3000041902272102AF61090A0020FEF7B4FE42
:102B400001233370EB691F43EF61F8BDB809002022
:102B5000B10900209BFFFF00B30900205C0A0020A0
:102B60000000084038B5051CFFF726FF0023282287
:102B70005A430A498A18947F002C04D00133042B4D
:102B8000F5D1074C06E0002D03D0012191772B6091
:102B900000E0044CFFF71CFF201C38BDB8090020E2
:102BA000011000F0041000F038B5C203430C1149C5
:102BB0000F4880185941104A104B01F013F9041CBA
:102BC0000D1C002D07D01048FFF774FF0C4A0D4B69
:102BD000A4185D41F5E70C4B9C42F4D8002C02D0C0
:102BE000201CFFF767FF002038BDC046C046C04626
:102BF000A00F000000000000401F000000000000C7
:102C0000650000FFFFFFFFFF9BFFFF00C046C046BF
:102C100038B51A4B1C78002C2ED101251848291CD8
:102C20001D70FEF721FA17480221FEF72BFB16480C
:102C30000821FEF7ADF9291C1348FEF715FA1348D1
:102C4000FEF754FE124B0722D9699143D9619A616C
:102C5000FEF75CFE0F4B8022C0215201A9405A5062
:102C60000D481A60211CA02201F02FFD0B4B1C7097
:102C70000B4B1C700B4B1C60002038BDB2090020B0
:102C80000023040002000600300408001C5B000062
:102C90000000084000E100E0B8090020B30900206E
:102CA000B1090020580A0020F0B585B001900391C9
:102CB000151C1F1C032800D9C2E0FFF77DFE0199F7
:102CC00028244C43644B1C19A37F002B03D1FFF72E
:102CD0007FFE6248B5E0002D08D1002F02D0019898
:102CE0000A99B847FFF774FE0020AAE05C4E6B0C0F
:102CF0007268564954480292EA0380185941A76104
:102D0000534A544B01F06EF8039BA060E160012B25
:102D100008D1FA239B005D43F42358437A23281AF1
:102D200020616361019C282161434B4801220023FB
:102D300041188C68CD6812196B410A604B60494B91
:102D4000039D0A9C1B7801220A77CD770C62071C31
:102D5000002BC7D1444C2368013302D023689B1851
:102D60002360424B1A78002A20D1029D28202A0293
:102D7000019D3F4B6843120A1A603F180223B3615A
:102D80000ACF002B02D13B4B994200D93949029D11
:102D9000002069180902090AFEF786FDF36902227C
:102DA0001343324DF36101232B7041E02368012B63
:102DB0003ED1019D28226A430023BA18137703935A
:102DC000F369022293432A4DF3612A680299881A13
:102DD00000022949000A43185A1E93415B421840D9
:102DE000FFF704FEFFF752FE039A002A05D101996E
:102DF00028234B430122FB181A77039A02980132C9
:102E00000392FFF767FE7368296802935B1A1B023F
:102E10001B0A00200093FEF739FD2B68134DC01AE2
:102E20002B780002000A002B02D0009D8542C7D8F3
:102E30002368002B00D155E72368013B236051E74D
:102E40000E4805B0F0BDC046A00F00000000000015
:102E5000401F000000000000B8090020031000F02F
:102E600000000840B3090020580A0020B1090020E2
:102E70005C0A00209BFFFF00010000FF021000F031
:102E8000F8B5194DFFF798FD2B699A0728D5174B10
:102E900001226C681A70EB6902229343144EEB61B5
:102EA0003368E01A0002000AFFF7A0FDFFF7EEFD0D
:102EB000201CFFF70FFE6C6832680020A71AFEF78F
:102EC000E5FC33683F02C01A0A4B00021B783F0A38
:102ED000000A002B01D08742DDD8044A002313707A
:102EE000FFF776FDF8BDC04600000840B30900209A
:102EF0005C0A0020B109002030B587B001AC1D1C70
:102F0000042363806B461A7000AB21800293211C5E
:102F10000123238104952382FFF73CFD002801D083
:102F2000FF232B7007B030BD10B588B003AC2180F3
:102F30000121618002A94B700223238101AB0A7039
:102F400004910693211C00232382FFF723FD08B080
:102F500010BD70B58AB005AC21800121618002A945
:102F60000A7000229A4206DA0E9E0132B518013D1F
:102F70002D788D54F6E70133238101AB6160E36066
:102F8000211C00232382FFF705FD0AB070BD10B598
:102F900086B001AC21800421618069460A700899DD
:102FA00000AA029204910122211C22812382FFF7B0
:102FB000F1FC06B010BD10B5131C02680C1C0179A1
:102FC000101C221CFFF7B0FF00B210BD13B56C46F9
:102FD000031C07340A1C00681979231CFFF78CFFB7
:102FE000207816BD37B5141C02680D1C01790093BA
:102FF000101C231C2A1CFFF7ACFF00B23EBD37B5E6
:10300000141C02680D1C01790093101C231C2A1C3F
:10301000FFF7BDFF00B23EBD08B50A20FFF7C4FDB3
:1030200008BD08B50120FFF7BFFD08BD08B5064B78
:10303000197118600021181CFFF7C8FFC0B247388B
:103040004342584108BDC046600A0020054B10B5F8
:10305000197118600321181C141CFFF7B7FF2060BA
:10306000002010BD600A0020F7B5234C1D1C002372
:103070002B60161C01AA21712060FFF7E7FF019B5E
:10308000002B15D02C21201CFFF7A0FF2D21071CA1
:10309000201CFFF79BFF00020743381C323080B230
:1030A000642100F0EFFD019B3080002B1CD109E072
:1030B000201C00F0D1F9201C2121FFF787FFC30756
:1030C000F9D5DFE72621201CFFF780FF2721061C0A
:1030D000201CFFF77BFF000206432823B6B2FF3314
:1030E0009E4201D901232B60201C2121FF22FFF7E2
:1030F00062FF0020FEBDC046600A002070B5384C5B
:1031000086B02060201C161C217100F020FA0F21CF
:10311000051CBB22201CFFF74EFF102145190B2276
:10312000201CFFF748FFADB22D1869460022201C75
:1031300000F05AFA00216A46201C00F05FFB0121D2
:103140008722201C00F092F9ADB22D1804211D2217
:10315000201CFFF730FFADB22D180C212422201CBB
:1031600000F084F9ADB22D1807210022201C00F0D8
:103170007DF9ADB22D1808210022201C00F076F94F
:10318000ADB22D1809210022201C00F06FF9ADB25C
:103190002D181F212022201C00F068F9ADB22D1837
:1031A0001221201C202200F061F9ADB22D18ADB221
:1031B000002E11D109210122201CFFF7FCFE08215D
:1031C000061C4022201CFFF7F6FE3618201C00F0DB
:1031D00048F9AD19ADB22D18ADB228B206B070BD28
:1031E000600A00202239223AC9B2D2B2002B05D19E
:1031F000415C835C09011B09CB1805E0435C825CE0
:103200001B029B181B051B0D084A93420AD0002B7A
:1032100008D0DAB280201B0540001B0F1043033397
:10322000984001E0012040427047C046FF0F000077
:103230000368002902DD8B40036002E04942CB4075
:1032400003607047437B007B1B02C3189BB21AB21A
:10325000D11C05D0D11C04DB0020002A09DB00E0D2
:10326000012304204042C01A80B203B2012B00DDCA
:10327000014800B27047C046FFFF000038B5051C8A
:10328000C824281C3021FFF7A1FE43B2012B01D135
:1032900000230AE0002B01DA9BB206E0013CE4B215
:1032A000FFF7BFFE002CECD1F2E718B238BDF8B53D
:1032B0000F1C2021051CFFF789FE041C031E3ADBAE
:1032C000C826281CFFF7DAFFC3B2002B19D1002F44
:1032D0000FD0281C2021FFF779FE22B240B283B222
:1032E000904206D0002826DB013EF6B21C1C002EC0
:1032F000E7D1281C18213A1CFFF75DFEC3B2002B52
:1033000002D05BB29BB216E0C826002F09D1002381
:1033100011E000280FDB013EF6B2FFF782FE002E1F
:10332000F5D0281C2021FFF751FE22B240B283B213
:103330009042EED0EBE718B2F8BDF8B5041E18D0F5
:1033400003680025AB4215D04B1C05D0012911D1D3
:10335000802636060F1C01E00126FF270025236882
:10336000334207D1013579B2201CEDB2FFF760FF7F
:10337000F5E7051C68B2F8BD10B50121041CFFF784
:10338000DCFF23680B4AD90BC903914205D1802386
:103390001B0601382360C0B205E0802212029B1890
:1033A0001B0C1B042360404241B2201CFFF740FF6E
:1033B00010BDC0460080FFFF73B5041E26D0006814
:1033C000431C25D06368013B03331FD8251D201CF7
:1033D000FFF7D2FF281CFFF7CFFF0121201CFFF7CA
:1033E000ACFF0121061C4942281CFFF7A6FFA1885B
:1033F000051C206800F046FC75191421491B01903A
:1034000049B201A8FFF714FF019801E001204042F2
:1034100076BDF7B5061D0125041C6D42FFF7ACFF14
:10342000301CFFF7A9FF291C201CFFF786FF291C71
:10343000071C301CFFF781FF0CCC5343391814399B
:1034400001A849B20193FFF7F3FE0198FEBD08B54C
:103450000021FFF72CFF08BD08B50721FFF727FF64
:1034600008BD08B50F21FFF722FF08BDF7B5041C02
:103470000E1C171CFFF702FF002824D12021201C5E
:10348000FFF7A4FD1F22164001AB051C603E201C67
:10349000172102221F705E70FFF7A4FD002812D1D1
:1034A000201C2021FFF792FD061C36B2AE4209D146
:1034B000201C2021FFF78AFD061EAE42F5D1FFF742
:1034C000B0FDF2E7002000B2FEBD70B5041C201C68
:1034D0003021FFF77BFD40B2012801D1C8262BE047
:1034E000FFF79FFDF3E7013D18210022201CEDB2FC
:1034F000FFF761FDFFF795FD002D06D0201C202170
:10350000FFF764FD40B20028EDD1201C0B21FFF72E
:10351000CEFEC825201C2021FFF758FD40B2002810
:103520000CD0201C2021FFF751FD40B201280CD007
:10353000013EF6B2002E08D0C825DFE7013DEDB20E
:10354000FFF76FFD002DE5D1EBE7002070BD38B52A
:10355000041CFFF761FDFFF75FFDFFF75DFD201C19
:1035600008210022FFF727FD09210022051C201C4D
:10357000FFF721FD2D18201CFFF7A7FF08212D18AC
:103580000022201CFFF717FD04212D180022201C0B
:10359000FFF711FD05212D180022201CFFF70BFD60
:1035A00006212D180022201CFFF705FD03212D18F0
:1035B0000022201CFFF7FFFC21212D18FF22201CD8
:1035C000FFF7F9FC182101222D18201CFFF7F3FC4E
:1035D0002D18FFF721FD201C07211722FFF7EBFC18
:1035E000281800B238BD000070B5041C86B00D1C50
:1035F000002825D0002923D0012A0DD102AE222196
:103600000C22331CFFF7FBFC002817D1335C002B86
:1036100018D101300C28F9D1201CFFF718FF002821
:103620000CD1201C2021FFF7D1FCC0B200281AD0F9
:10363000FFF7F7FCF0E76B4B18422BD06A4802E02B
:103640006A4800E06A48E822120480235B03AA600B
:10365000C0222B606B60D2032B610023EA606B6198
:1036600000B206B070BD201C18211222FFF7A3FC87
:10367000061C201CFFF702FE002EDFD1201C20219B
:10368000FFF7A4FCC0B28028D5D1201CFFF7DFFED5
:103690005848D8E7012802D0FFF7C3FCEEE7201C0A
:1036A00022210C2202ABFFF7AAFC0028C6D1201C65
:1036B000FFF7CDFE0028C1D1201C2021FFF786FC9A
:1036C000C0B2002802D0FFF7ACFCF0E7201C1821A4
:1036D0001122FFF770FC061C201CFFF7CFFD002E07
:1036E000ACD1201C2621022205ABFFF788FC061E68
:1036F000A4D102A8FFF7A6FD3F4C40012018806925
:10370000331C00902B2102A82C22FFF76BFD0190A7
:103710006846FFF751FE431C01D180204003286119
:1037200002A8FFF78FFD40012018006900230090D8
:10373000282102A82922FFF755FD01906846FFF7CE
:103740003BFE431C01D180204003286002A8FFF704
:1037500079FD40012018406801230090222102A831
:103760002522FFF73FFD01906846FFF725FE431C29
:1037700001D180204003686022212522012302A874
:10378000FFF730FD00230090232102A82222FFF73B
:1037900029FD01906846FFF70FFE431C01D1E82088
:1037A0000004A86002A8FFF74DFD400124181C3456
:1037B00029212A2201236C6102A8FFF713FD0023AF
:1037C0000090232102A82222FFF70CFD01906846F9
:1037D000FFF7F2FD431C01D1C020C003E8600020C8
:1037E0003EE7C046F0FF0000FEFF0000FCFF0000C7
:1037F000FFFF0000FDFF000014000020F0B5071CD3
:1038000085B0151C5469002903D1002C02D122482F
:103810003FE00C1C381C0021FFF7D8FB3238C0B247
:103820001528F4D801238340181C1C4B1842EED0F5
:103830002B68002B01D180235B036E68002E01D121
:10384000802676036278217812028A1802A80292F2
:103850000393FFF7DEFDFF2301AD1B022870184024
:10386000000A6870E378A2781B02D31802A80293BA
:103870000396FFF7CEFDFF231B02A8701840000A35
:10388000E8701321381C04222B1CFFF7ABFB40B25D
:1038900080B200B205B0F0BDFFFF000001003800AB
:1038A000F0B589B003AC171C0422628001AA218004
:1038B000137002AD01230226211C04922381069578
:1038C0002682FFF767F8002802D000233B6007E05C
:1038D0006B78032293432A78301C12029B183B60BA
:1038E00009B0F0BDF8B51C1CE523071C0E1C151C07
:1038F000FFF7D6FF022802D00120404216E02A68D6
:103900000B4B381C53430B4A5B0B9B182B60311C31
:10391000221CE023FFF7C4FF0228EDD12268064BEA
:1039200000205343054A5B139B182360F8BDC04633
:10393000093D000090E8FFFFCD550000FE48FFFF65
:1039400030B589B003AB141C042219805A80694633
:10395000FC220A70C9224A7000AA049202221A812B
:1039600008221A82191C01AD0695FFF713F80023EF
:10397000984204D19C4201D02B7823700123181C5B
:1039800009B030BDF0B5664C8BB009A8654903227B
:1039900000F092FE236C00200190590705D4624884
:1039A0000121FDF761FB012201926048FDF796FBC2
:1039B000E26A4023171C032106905C481F40FDF774
:1039C00061FC5B48FDF7B6FA802107904900584832
:1039D000FDF7DEFAA36D002001240290234204D1FA
:1039E0005348211CFDF740FB029472B6514B1A68F4
:1039F000511C01D001321A604F4C01262568354018
:103A000012D02268A368E068049300230392059013
:103A1000E5692360E3610723A3618021C023474A4E
:103A20004901B340D15003E00595049503952E1C40
:103A3000002309A88370FDF759FF8022404B5201F3
:103A40001A603F4B1A6852001A600BD061686268B6
:103A50009142FCD0384A52681B68013BFDD863682C
:103A60009342EED0364B1A6852081A601B6809223E
:103A7000013A002A17D05B0815D03149086818436D
:103A800008606068844660688445FCD02A484068C5
:103A900009680139FDD861688142E9D02849086880
:103AA00098430860E4E7234A1368002B04D0013BE5
:103AB0001360002B00D162B6002E11D007991C486C
:103AC000FDF766FA0120FDF707FF0499059A039BAD
:103AD000A1600020E2602360E561FDF7FDFE02E0E9
:103AE000301CFDF7EFFE0298002803D0104800219B
:103AF000FDF7BAFA0699032902D00C48FDF7C2FB7C
:103B0000002F04D10120391C3A1CFDF793FB019AC8
:103B1000002A03D004480021FDF7A6FA0BB0F0BD3F
:103B200000800C401F5B0000002304000200060020
:103B3000300408003C0100200000084000E100E0E3
:103B400054000020031C0849002B0CD0013B8822A4
:103B50001202003253430A68D80AD20A504380093D
:103B600001D00138FDD87047540000200648804736
:103B70000649074A074B9B1A03DD043BC858D0503F
:103B8000FBDCFCF7AFFA0000553C0000685B00006E
:103B900000000020D0000020FEE7C0461D4AF023B0
:103BA000D16A9B010B40802149018B422DD080219D
:103BB00089018B4205D0802109018B4204D1164B2B
:103BC00000E0164B186824E0D268E023DB001340C5
:103BD00080229200934212D007D8002B11D080226D
:103BE000520093420FD10E4813E0C022920093423C
:103BF0000ED08022D200934205D10A4809E00A483B
:103C000007E00A4805E0002003E08020000200E011
:103C10000748704700800C405C00002058000020DE
:103C200040B56400406F4001C0D8A700804F12002B
:103C3000809FD50008B5FFF7B1FF044B5A680F23EA
:103C40001340D840024B186008BDC04600800C40AD
:103C50008C0A00207047802000027047FA20800004
:103C600070470000014B18687047C046580000209C
:103C700002B4714649084900095C49008E4402BCFF
:103C80007047C046002934D00123002210B4884276
:103C90002CD301242407A14204D2814202D209017B
:103CA0001B01F8E7E400A14204D2814202D249009C
:103CB0005B00F8E7884201D3401A1A434C08A0423F
:103CC00002D3001B5C0822438C08A04202D3001BD5
:103CD0009C082243CC08A04202D3001BDC082243EC
:103CE000002803D01B0901D00909E3E7101C10BC10
:103CF0007047002801D00020C04307B4024802A149
:103D00004018029003BDC046D90000000029F0D041
:103D100003B5FFF7B9FF0EBC4243891A1847C046E6
:103D2000002941D010B4041C4C40A44601230022B9
:103D3000002900D54942002800D5404288422CD3B2
:103D400001242407A14204D2814202D209011B01AD
:103D5000F8E7E400A14204D2814202D249005B00AC
:103D6000F8E7884201D3401A1A434C08A04202D314
:103D7000001B5C0822438C08A04202D3001B9C0855
:103D80002243CC08A04202D3001BDC0822430028B7
:103D900003D01B0901D00909E3E7101C6446002C7D
:103DA00000D5404210BC7047002806D003DB00203D
:103DB000C043400801E08020000607B4024802A189
:103DC0004018029003BDC046190000000029EBD046
:103DD00003B5FFF7A7FF0EBC4243891A1847C04638
:103DE0007047C046002B11D1002A0FD1002900D105
:103DF000002802D00021C943081C07B4024802A1D0
:103E00004018029003BDC046D9FFFFFF03B46846C7
:103E100001B5029800F044F8019B9E4602B00CBC2C
:103E20007047C0469C460304F0B51B0C17043F0CBA
:103E3000150C1E1C041C000C7E436B43474345437A
:103E4000FB18300C1818874202D980235B02ED184A
:103E5000030CED1863465C434A433604360CA11844
:103E6000000480194919F0BDF0B583B0161C1F1C61
:103E70000090019100F02EF8041C0D1C221C2B1C3C
:103E8000301C391CFFF7CEFF009A019B121A8B41A0
:103E90000899201C0A604B60291C03B0F0BDC04685
:103EA000F0B583B0141C1D1C0090019100F0EAF9DC
:103EB000221C2B1C061C0F1CFFF7B4FF009A019B51
:103EC000121A8B410899301C0A604B60391C03B0F0
:103ED000F0BDC046F0B544465F4656464D46F0B488
:103EE0001C1C85B0002900DAD9E00F1C0021061C3B
:103EF0008A46101C191C002C00DAC7E001960090BD
:103F000089468046002950D1B84262D900F07AFB38
:103F1000002809D020234546311C1B1A85408740C4
:103F2000D940A8460F4386404246140C13041B0C8C
:103F3000211C381C9B46FFF7A5FE5B464343051C2E
:103F4000211C381C9946FFF7E1FE330C0804184386
:103F5000814509D940446B1E804500D977E18145F0
:103F600000D874E1023D40444946411A8946081C84
:103F7000211CFFF787FE5A464243071C211C484676
:103F80009346FFF7C3FE36040904360C0E43B345CF
:103F900007D946447B1EB04502D8023FB34500D83E
:103FA0001F1C2D042F43002403E0B94260D90024D4
:103FB00000275246381C211C002A03D03B1C00213C
:103FC0005842A14105B03CBC90469946A246AB463A
:103FD000F0BD002804D101200021FFF753FE8046E8
:103FE000404600F00FFB002860D1414644460B04D8
:103FF0003C1B1B0CA3460D0C00930124291C5846A6
:10400000FFF740FE009F81464743291C5846FFF7B3
:104010007DFE330C090419438F4208D94B464144B5
:10402000013B884502D88F4200D925E19946C91B3A
:104030008B46081C291CFFF725FE009B291C4343C7
:10404000071C58460093FFF761FE3604009D0904E3
:10405000360C0E43B54207D946447B1EB04502D804
:10406000023FB54200D81F1C49460B041F43A0E77E
:10407000081C00F0C7FA041E70D1B94503D3009C98
:10408000019DAC4293D80024012792E75246D243C7
:10409000031C0C1C924600215842A1412EE7002728
:1040A00046428F41012149428A4622E720231B1ABA
:1040B0004246351C82403C1CDD40DC4087402B1CC6
:1040C000150C3B43291C8640201C00931704904686
:1040D000FFF7D8FD3F0C011C794381468B46201C1D
:1040E000291CFFF713FE009C0904230C19438B4580
:1040F0000CD94B464144013B884500D9BAE08B4579
:1041000000D8B7E002225242914441445C460C1B65
:10411000201C291C0194FFF7B5FD391C4143041CE8
:104120008B460198291CFFF7F1FD009A090413043E
:104130001B0C19438B4509D94144631E884500D99E
:1041400094E08B4500D891E0023C41445B46CB1A99
:1041500049469B460B041C4300974FE7009D2023D4
:104160001B1A4A4600998240DD40154381403A1CA3
:10417000DA400091311C9046D9403A1C82400B1C19
:10418000134301932F0C2B041B0C391C4046029344
:10419000FFF778FD029A81464243391C4046934618
:1041A000FFF7B4FD019A0904130C19438B450AD992
:1041B0004B464919013B8D425AD88B4558D90223A9
:1041C0005B42994449195A468A1A101C391C0392B9
:1041D000FFF758FD029B80464343391C03989B46DA
:1041E000FFF794FD019A090413041B0C19438B4536
:1041F0000AD943464919013B8D4235D88B4533D9FD
:1042000002235B42984449195D464D1BAB46494623
:10421000009D0F04424617432A04120C3B042D0C48
:104220001B0C380C111C594342436B436843D31891
:104230000D0C5B198C469A4202D9802252028018DA
:104240001D0C401983450CD303D00024B1E61D1C7E
:104250008AE665462A041B04120C9B18A6409E425F
:10426000F3D2013F0024A4E69846CDE71C1C6DE77D
:104270009946A8E7994649E70222524291444144AF
:10428000D5E6C046F0B55F4656464D464446F0B4C6
:104290000D1C85B0061C924698460290019103922F
:1042A0001F1C141C8346A946002B52D1AA426BD96D
:1042B000101C00F0A7F900280AD020231B1A311C7B
:1042C000D94085400B1C2B43864084409946B34619
:1042D000250C23041B0C291C48469846FFF7D2FCEA
:1042E0004646071C4643291C4846FFF70FFD5A4621
:1042F0000904130C19438E4209D909197B1E8C42FB
:1043000000D959E18E4200D856E1023F0919891BB4
:104310008946081C291CFFF7B5FC43464343061C8D
:10432000291C48469846FFF7F1FC5A461304090435
:104330001B0C1943884508D90919731E8C4200D9F2
:1043400038E1023E884500D834E138043043002784
:1043500012E0019A93420DD8181C00F053F9041E84
:1043600066D1019B9F4200D221E1039F02998F42B7
:1043700000D81CE100270020391C05B03CBC904649
:104380009946A246AB46F0BD002A04D10120002187
:10439000FFF778FC041C201C00F034F9002800D042
:1043A000B6E023042D1B1B0CA946260C98460127BA
:1043B000311C4846FFF766FC41464143051C8A46CE
:1043C0004846311CFFF7A2FC5A460804130C184358
:1043D000824507D900196B1E844202D8824500D954
:1043E0000DE11D1C5346C31A181C311C9A46FFF7D9
:1043F00049FC41464143814688465046311CFFF7FF
:1044000085FC5A46130409041B0C194388450BD933
:104410004B460919013B8C4200D9CFE0884500D8B2
:10442000CCE002235B429944280449460843A3E7B1
:1044300020231B1A424657468240DF40174352460C
:1044400082400192321CDA40291CD9408540131C5D
:104450002B4302933D0C3B041B0C8846081C291C73
:104460009A46FFF70FFC534643438146291C4046BA
:104470009B46FFF74BFC029A0904130C19438B452A
:1044800006D94B46C919013B8F4200D8ABE099468B
:104490005A468A1A101C291C9346FFF7F3FB534611
:1044A0004343291C804658469A46FFF72FFC029A40
:1044B000090415042D0C29438A4506D94346C91918
:1044C000013B8F4200D886E098465746CF1BBA463C
:1044D0004946019F0804424610433D042D0C030445
:1044E0003F0C1B0C020C291C594355437B437A4358
:1044F000EB180F0CDB198C469D4202D980277F02F6
:10450000D2191D0C5219924562D359D0002733E7B6
:1045100020231B1A311C2F1CD940DF4085400B1C67
:1045200084402B4386400193B3462304260C1B0C86
:10453000381C311C9846FFF7A5FB42464243051C38
:10454000311C381C9146FFF7E1FB019F09043B0C2D
:104550001943894507D909196B1E8C424DD88945E5
:104560004BD9023D09194A468A1A101C311C924641
:10457000FFF788FB43464343071C311C50469946CE
:10458000FFF7C4FB019A090413041B0C1943894566
:1045900007D909197B1E8C422DD889452BD9023F9A
:1045A00009194B46CB1A2D0499462F4300E70027E3
:1045B0000120E1E61E1CC8E61F1CA8E6994633E769
:1045C00061460A041B04120C9B18A6409E429DD211
:1045D00001380027D0E68A4500D875E702235B4200
:1045E0009844C91971E78B4500D850E702235B4214
:1045F0009944C9194CE71F1CD3E71D1CB3E7023DC2
:104600000019EFE61C2101231B04984201D3000C82
:1046100010391B0A984201D3000A08391B09984235
:1046200001D30009043902A2105C40187047C0464B
:10463000040302020101010100000000000000006B
:10464000084B10B5041C002B02D0002100E000BF75
:10465000054B1868836A002B00D09847201C00F097
:1046600065FCC04600000000245B000070B50E4BE6
:104670000E4D0024ED1AAD101E1CAC4204D0A30058
:10468000F35898470134F8E700F052FC084B094D05
:104690000024ED1AAD101E1CAC4204D0A300F35848
:1046A00098470134F8E770BDC4000020C400002022
:1046B000C4000020C800002010B50023934203D09E
:1046C000CC5CC4540133F9E710BD031C821893423B
:1046D00002D019700133FAE7704700000EB400B53C
:1046E0009CB01DAB04CB822202A992008A810A4AA7
:1046F00002908A604A6101225242CA81074A0861D7
:1047000010681D9A019300F07BF8029A0023137041
:104710001CB008BC03B01847FFFFFF7FC00000209B
:10472000031C0A7801311A700133002AF9D170474D
:104730000023C25C0133002AFBD1581E70470000E1
:10474000F0B58D6885B0071C0C1C03920193AB4239
:1047500045D390228B89D20013423DD06269032653
:10476000564309692068F20F401A96190290021CFC
:104770000198013212187610964200D2161C381C8D
:104780005A050FD5311C00F021FB051E13D0029AEB
:104790002169FFF791FFA289184B13408022134330
:1047A000A38111E0321C00F065FB051E0CD1381C02
:1047B000216900F0C3FA0C233B60A3894022134314
:1047C0000120A381404217E0029B2561ED1825607E
:1047D0006661019DF61AA6600198A84200D2019D6B
:1047E0002A1C2068039900F090FAA2680020531B4D
:1047F000A36023685D19256005B0F0BD7FFBFFFF56
:10480000F0B59FB005938B8903900E1C171C1906F9
:104810000FD53269002A0CD1402100F0D7FA306060
:104820003061002803D103990C230B60C9E04023B9
:10483000736106AD00236B6120236B763023AB766A
:104840003C1C2378002B03D1E21B029211D003E021
:10485000252BF9D00134F4E70398311C3A1C029B54
:10486000FFF76EFF013000D1A6E06969029A8B184C
:104870006B612378002B00D19EE0012252426A60D6
:104880006A4600235B3201342B60EB60AB6013702F
:10489000AB654E4F2178381C052200F02BFA00281A
:1048A00007D0C71B2B680120B8401843286001348B
:1048B000EFE72B68D90603D56A4620215B321170D9
:1048C0001A0703D56A462B215B32117022782A2AF7
:1048D00001D0099B0EE0059A111D12680591002A6E
:1048E00001DB099204E05242EA60022213432B608A
:1048F000013409E02278303A092A04D80A214B43CE
:1049000001349B18F6E7099323782E2B18D163788E
:104910002A2B09D1059B02341A1D1B680592002B16
:104920000DDA01235B420AE0013400232278303A99
:10493000092A04D80A214B4301349B18F6E7079350
:10494000234F2178381C032200F0D4F9002806D028
:10495000C71B2B684020B8401843286001342178D9
:104960001C480622671C297600F0C4F9002812D0E2
:10497000194B002B06D1059B0722073393430833BD
:10498000059314E005AB00930398291C321C134BCC
:1049900000E000BF07E005AB00930398291C321C20
:1049A0000E4B00F091F804900499013104D06A692B
:1049B000049953186B6143E7B3895A0601D40B98E5
:1049C00001E0012040421FB0F0BDC046285B00005E
:1049D0002E5B0000325B0000000000004147000039
:1049E000F7B5151C01930A698B68061C0C1C9342D1
:1049F00000DA131C221C2B6043321278002A01D0EB
:104A000001332B602068800602D52B6802332B60AF
:104A1000216806270F401FD0231C43331B785A1EE2
:104A20009341226892061FD5E11840313020C870AA
:104A3000211C5A1C45310978A21840320233D1702A
:104A400012E0221C301C019919320123089FB8473B
:104A5000013011D0009F01370097E0682968009F5E
:104A6000431A9F42EDDBD7E7221C301C01994332E9
:104A7000089FB847013002D10120404223E020685E
:104A800006212B68E26801400025042903D1D51ACC
:104A9000EB43DB171D40A26823699A4201DDD31A5C
:104AA000ED1800270097009FAF420BDA221C301C44
:104AB00001991A320123089FB8470130DCD0009FCA
:104AC0000137EFE70020FEBDF0B58BB007930D1C5A
:104AD0000B7E4335069205900C1C109A04956E2BA4
:104AE00000D1A7E011D8632B22D009D8002B00D128
:104AF000B0E0582B00D0C0E045310B707B4D4EE04C
:104B0000642B1CD0692B1AD0B7E0732B00D1A5E021
:104B100009D86F2B29D0702B00D0AEE00E6820236F
:104B200033430B6036E0752B1FD0782B32D0A4E0D6
:104B300013680D1C191D423511601B689FE0216828
:104B400013680E0603D5191D11601E6805E048069E
:104B5000F9D5191D116000215E5E644B002E3BDA11
:104B6000049D2D2276422A7036E0216813680E06D5
:104B700003D5191D11601E6804E04806F9D5191DFA
:104B80001E881160594B227E039308276F2A1ED07E
:104B90000A271CE0231C78214533554D19701168F4
:104BA0002368081D039510601E0601D50E6802E0FB
:104BB0005806FBD50E88D90702D52022134323605F
:104BC0001027002E03D1226820239A432260231C41
:104BD000002243331A7001E003930A276368A3603D
:104BE000002B03DB2568042295432560002E02D1AB
:104BF000049D002B0ED0049D301C391CFFF786F855
:104C00000398013D435C301C2B70391CFFF73AF8C8
:104C1000061EF1D1082F09D12168C90706D562689F
:104C200023699A4202DC013D30232B70049E731BE2
:104C300023612AE0086813684969050604D5181D30
:104C400010601B68196005E04606F8D5181D106055
:104C50001B68198000232361049D16E01368191D49
:104C600011601D68281CFFF763FD6368206198428E
:104C700000D923612069606004E0251C42352B7057
:104C800001232361049E00233370079E059800963C
:104C9000211C09AA069BFFF7A3FE013002D10120C7
:104CA000404221E02A1C059806992369079DA847E0
:104CB0000130F4D02668B60705D4099BE068984215
:104CC00012DA181C10E00025E0680999431A9D4289
:104CD000F3DA221C0598069919320123079EB04782
:104CE0000130DCD00135EFE70BB0F0BD395B0000DF
:104CF0004A5B0000C9B28218904204D003788B420C
:104D000002D00130F8E70020704770B5814201D32E
:104D100000230CE08C18A042FAD28518131C013B2A
:104D20000BD351426618F65C6918CE54F7E79342EC
:104D300003D0CC5CC4540133F9E770BD30B5002911
:104D400040D004390B68002B00DAC9181E4A1368DA
:104D5000141C002B02D14B60116033E099420FD23A
:104D600008680A189A4205D113685268C01808608A
:104D70004A6000E04B60216024E08A4203D8131CA3
:104D80005A68002AF9D11D685C198C420BD1096858
:104D9000691858181960904214D11468526809199A
:104DA00019605A600EE08C4202D90C23036009E0BE
:104DB00008680C18944203D11468526800190860FE
:104DC0004A60596030BDC0466C0A002070B50323AC
:104DD000CD1C9D430835061C0C2D01D20C2501E08D
:104DE000002D3FDB8D423DD3204B1C681A1C211C3B
:104DF000002913D00868431B0DD40B2B02D90B607C
:104E0000CC181EE08C4202D1636813601AE0486837
:104E100060600C1C16E00C1C4968E9E7144C206823
:104E2000002803D1301C00F04BF82060301C291CF6
:104E300000F046F8431C15D0C41C03239C43844255
:104E40000AD12560201C0B300722231D9043C31A72
:104E50000BD05A42E25008E0211A301C00F030F822
:104E60000130EED10C233360002070BD6C0A0020AD
:104E7000680A0020F8B5061C0C1C151C002904D17A
:104E8000111CFFF7A3FF041C18E0002A03D1FFF751
:104E900055FF2C1C12E000F025F8A8420ED2301C61
:104EA000291CFFF793FF071E07D0211C2A1CFFF7C0
:104EB00003FC301C211CFFF741FF3C1C201CF8BDEB
:104EC00038B5074C0023051C081C236000F014F8BB
:104ED000431C03D12368002B00D02B6038BDC04693
:104EE000900A002004390B68181F002B02DAC858FA
:104EF0001B18181F70470000094A1368002B0CD0BC
:104F000018186946884202D81060181C7047054B73
:104F10000C2201201A604042F8E7034B1360EFE7D0
:104F2000700A0020900A0020980A0020FEE7C04680
:104F3000F8B5C046F8BC08BC9E467047F8B5C046F8
:104F4000F8BC08BC9E467047742564006825640060
:104F50006C256400456E7669726F6E6D656E7400C7
:104F600073656E736F72206C6F67006279204433D3
:104F70000074656D703A20256420430068756D6982
:104F8000643A2025642070630075763A2025640019
:104F900075702025642025642F2564206872000028
:104FA0000000000000000000000000000000000001
:104FB00000000000000000000000000000000000F1
:104FC00000000000000000000000000000000000E1
:104FD00000000000000000000000000000000000D1
:104FE00000000000000000000000000000000000C1
:104FF0000000000000000000000000004000000071
:10500000000000000000001C000000004000000044
:1050100000000000000000780000000040000000D8
:1050200000000000000000F00100000040471000F8
:105030000F000000000000E003000000C04810C0A6
:1050400010000000000000E0070000004090084051
:10505000000E3D3C383400E01F0000004090084046
:1050600000116342440C00E03F0000004010058046
:1050700081204102820400E07F0000004010050012
:105080008E3F410E820400F0FF000000C0080200C5
:1050900090004130820400F0FF0100004007020050
:1050A00090004140820400F8FF010000000002402F
:1050B00018214142440400FCFF030000000001806D
:1050C0000F1E413C380400FEFF07000000C0000036
:1050D00000000000000080FFFF0F00000000000043
:1050E000000000000000C0FFFF0F000000000000F3
:1050F000000000000000F0FFFF1F0000F8810F40DB
:10510000000000000000FCFFFF3F000008461840C0
:10511000000000000000FFFFFF3F000008041040F7
:105120008003170000C0FFFFFF7F00000808184041
:105130004084180000F0FFFFFF7F000008080F40C8
:105140002048100000F8FFFFFFFF0000080818408B
:105150002048100000FEFFFFFFFF0000080810407D
:1051600020481000C0FFFFFFFFFF000008041040B0
:1051700020481000F0FFFFFFFFFF01000846184025
:1051800040841800FCFFFFFFFFFF0100F88107C00B
:105190008F031700FFFFFFFFFFFF0100000000006B
:1051A000000010C0FFFFFFFFFFFF01000000000034
:1051B000008008E0FFFFFFFFFFFF0300000000008A
:1051C000000007F8FFFFFFFFFFFF030000000000E3
:1051D000000000FEFFFFFFFFFFFF030000000000D4
:1051E000000000FFFFFFFFFFFFFF030000000000C3
:1051F000000080FFFFFFFFFFFFFF3F0000000000F7
:105200000000C0FFFFFFFFFFFFFFFF0000000000E6
:105210000000E0FFFFFFFFFFFFFFFF0300000000B3
:105220000000F0FFFFFFFFFFFFFFFF07000000008F
:105230000000F8FFFFFFFFFFFFFFFF0F000000006F
:105240000000F8FFFFFFFFFFFFFFFF1F000000004F
:105250000000FCFFFFFFFFFFFFFFFF3F000000001B
:105260000000FCFFFFFFFFFFFFFFFF7F00000000CB
:105270000000FEFFFFFFFFFFFFFFFFFF0000000039
:105280000000FEFFFFFFFFFFFFFFFFFF0000000029
:105290000000FEFFFFFFFFFFFFFFFFFF0100000018
:1052A0000000FFFFFFFFFFFFFFFFFFFF0100000007
:1052B0000000FFFFFFFFFFFFFFFFFFFF01000000F7
:1052C0000000FFFFFFFFFFFFFFFFFFFF01000000E7
:1052D0000080FFFFFFFFFFFFFFFFFFFF0300000055
:1052E0000080FFFFFFFFFFFFFFFFFFFF0300000045
:1052F0000080FFFFFFFFFFFFFFFFFFFF0300000035
:105300000080FFFFFFFFFFFFFFFFFFFF0300000024
:105310000080FFFF1FFFFFFFFFC3FFFF0300000030
:105320000080FFFF07FCFFFFFF81FFFF030000007D
:105330000080FFFF03F8FFFFFF00FFFF03000000F6
:105340000080FFFF03F8FFFF7F00FEFF0300000067
:105350000000FFFF03F8FFFF7F00FEFF03000000D7
:105360000000FFFF03F8FFFF7F00FEFF01000000C9
:105370000000FFFF03F8FFFF7F00FEFF01000000B9
:105380000000FFFF03F8FFFF7F00FEFF01000000A9
:105390000000FEFF03F8FFFF7F00FEFF000000009B
:1053A0000000FEFF03F8FFFF7F00FEFF000000008B
:1053B0000000FEFF03F8FFFF7F00FEFF000000007B
:1053C0000000FFFF03F8FFFF7F00FEFF000000006A
:1053D00000C0FFFF03F8FFFF7F00FEFF0300000097
:1053E00000F0FFFF03F8FFFF7F00FEFF0F0000004B
:1053F00000F8FFFF03F8FFFF7F00FEFF1F00000023
:1054000000FCFFFF03F8FFFF7F00FEFF3F000000EE
:1054100000FEFFFF03F8FFFFFF00FFFF7F0000001B
:1054200000FFFFFF07FCFFFFFF81FFFFFF00000001
:1054300080FFFFFF1FFFFFFFFFE7FFFFFF010000EF
:10544000C0FFFFFFFFFFFFFFFFFFFFFFFF030000A5
:10545000C0FFFFFFFFFFFFFFFFFFFFFFFF03000095
:10546000E0FFFFFFFFFFFFFFFFFFFFFFFF07000061
:10547000E0FFFFFFFFFFFFFFFFFFFFFFFF07000051
:10548000F0FFFFFFFFFFFFFFFFFFFFFFFF0F000029
:10549000F0FFFFFFFFFFFFFFFFFFFFFFFF0F000019
:1054A000F0FFFFFFFFFFFFFFFFFFFFFFFF0F000009
:1054B000F8FFFFFFFFFFFFFFFFFFFFFFFF1F0000E1
:1054C000F8FFFFFFFFFFFFFFFFFFFFFFFF1F0000D1
:1054D000F8FFFFFFFFFFFFFFFFFFFFFFFF1F0000C1
:1054E000F8FFFFFFFFFFFFFFFFFFFFFFFF1F0000B1
:1054F000F8FFFFFF010000000000FEFFFF1F00009B
:10550000F8FFFFFF000000000000FCFFFF1F00008D
:10551000F8FFFF7F000000000000F8FFFF1F000001
:10552000F8FFFF7F000000000000F8FFFF1F0000F1
:10553000F8FFFF7F000000000000F8FFFF1F0000E1
:10554000F8FFFFFF000000000000FCFFFF1F00004D
:10555000F8FFFFFF000000000000FCFFFF1F00003D
:10556000F8FFFFFF010000000000FEFFFF1F00002A
:10557000F0FFFFFF030000000000FFFFFF0F00002F
:10558000F0FFFFFF030000000000FFFFFF0F00001F
:10559000F0FFFFFF070000000080FFFFFF0F00008B
:1055A000E0FFFFFF0F00000000C0FFFFFF0700004B
:1055B000E0FFFFFF1F00000000E0FFFFFF0700000B
:1055C000C0FFFFFF3F00000000F0FFFFFF030000EF
:1055D000C0FFFFFFFF00000000FCFFFFFF03000013
:1055E00080FFFFFFFF01000000FEFFFFFF01000042
:1055F00080FFFFFFFF03000000FFFFFFFF0100002F
:1056000000FFFFFFFF07000080FFFFFFFF0000001B
:1056100000FEFFFFFF3F0000F0FFFFFF7F000000E4
:1056200000FEFFFFFFFF0100FEFFFFFF7F00000005
:1056300000FCFFFFFFFF3FF0FFFFFFFF3F00000008
:1056400000F8FFFFFFFFFFFFFFFFFFFF1F0000004D
:1056500000F0FFFFFFFFFFFFFFFFFFFF0F00000055
:1056600000E0FFFFFFFFFFFFFFFFFFFF070000005D
:105670000080FFFFFFFFFFFFFFFFFFFF01000000B3
:105680000000FFFFFFFFFFFFFFFFFFFF0000000024
:105690000000FEFFFFFFFFFFFFFFFF3F00000000D5
:1056A0000000F8FFFFFFFFFFFFFFFF1F00000000EB
:1056B0000000E0FFFFFFFFFFFFFFFF07000000000B
:1056C000000080FFFFFFFFFFFFFFFF010000000061
:1056D000000000FCFFFFFFFFFFFF3F000000000095
:1056E000000000E0FFFFFFFFFFFF0F0000000000D1
:1056F00000000000FFFFFFFFFFFF000000000000B0
:1057000000000000F0FFFFFFFF0F0000000000009E
:105710000000000000FCFFFF3F0000000000000050
:105720000000000000000000000000000000000079
:105730000000000000000000000000000000000069
:105740000000000000000000000000000000000059
:105750000000000000000000000000000000000049
:105760000000000000000000000000000000000039
:105770000000000000000000000000000000000029
:105780000000000000000000000000000000000019
:105790000000000000000000000000000000000009
:1057A00000A00040040D040C0600000000000000F2
:1057B000486B01000000000008091108CC570000E8
:1057C00020030164080802000100000000186C6C4E
:1057D00010CE3808600C0000000000007C307C7C9B
:1057E000C6FE7CFE7C7C000070001C7C7C7C7E7C89
:1057F0007EFEFE7CC63C78C606C6C67C7E7C7E7C71
:105800007EC6C6C6C6C6FE7C007C10000C00060024
:1058100060003800060000060C00000000000000D8
:10582000000000000000003018188C00000000008C
:1058300000186CFEFC6A2C1830186C18000000C0B0
:10584000C638C6C6C606C6C0C6C61818387C38C60E
:10585000C6C6C6C6C60606C6C618306606EECEC69C
:10586000C6C6C6C618C6C6C6C6C6C00C06603800C0
:105870000C00060060000C00061830060C0000004A
:105880000000000018000000000000181830D600CA
:1058900000000000001848FE162E2C18183038188A
:1058A00000000060C63060C0C6060660C6C6181894
:1058B0001C7C70C6F6C6C606C6060606C618303676
:1058C00006FEDEC6C6C6C60618C6C6C66CC6600CD0
:1058D0000C606C00043C3E3C7C3C3C3C3E00006662
:1058E0000C6E3E3C3E3C363C186666C666667E18CC
:1058F00018306200000000000018006C7C10DC0012
:105900001830FE7E1C7E0030C6303070FE7E7E3049
:105910007CFC00000E00E070F6FE7E06C61E1EF641
:10592000FE18301E06D6F6C67EC67E7C18C6C6D6C3
:1059300038FC300C1860C6000060660666660C66AF
:10594000661830360CD6666666666E067C6666C677
:105950003C66300C0060000000000000000000FE0B
:10596000D0E866001830387E1C7E1C18C63018C07F
:10597000C0C0C618C6C018181C7C703076C6C606D3
:10598000C60606C6C618303606C6E6C606B6C6C081
:1059900018C6C6FE6CC0180C30600000007C66069D
:1059A000667E0C7C6618301E0CD666663E56063C3B
:1059B000186666D6187C1818183000000000000021
:1059C000001800FE7EAC660030186C1818001C0C25
:1059D000C6300CC6C0C6C60CC6C61818387C3800FF
:1059E00006C6C6C6C60606C6C618366606C6C6C6F5
:1059F0000666C6C618C66CEEC6C00C0C606000FE1B
:105A00000066660666060C60661836360CC6666664
:105A10000626066018663CD63C600C18183000005C
:105A2000000000000018006C10E6DC00600C00189C
:105A30000C001C067C78FE7CC07C7C067C7C000C08
:105A400070001C307CC67E7C7EFE06FCC63C1CC6FC
:105A5000FEC6C67C06DCC67C187C38C6C67EFE7CCC
:105A6000C07C00FE007C3E3C7C3C0C3E66701C66AC
:105A700038C6663C065C063E707C18FC663E7E308E
:105A800018180000000000000000000000000000E6
:105A90000000000000000000000000000000000006
:105AA00000000000000000000000000000000000F6
:105AB00000000000000000000000000000000000E6
:105AC00000000000000000000000000000000000D6
:105AD00000000000000000000000000000000000C6
